{
  "contractName": "AddCommitment",
  "abi": [
    {
      "anonymous": false,
      "inputs": [
        {
          "indexed": false,
          "internalType": "address",
          "name": "_contractor",
          "type": "address"
        },
        {
          "indexed": false,
          "internalType": "string",
          "name": "Contract",
          "type": "string"
        },
        {
          "indexed": false,
          "internalType": "uint256",
          "name": "amount",
          "type": "uint256"
        },
        {
          "indexed": false,
          "internalType": "bool",
          "name": "status",
          "type": "bool"
        }
      ],
      "name": "NewCommitment",
      "type": "event"
    },
    {
      "inputs": [
        {
          "internalType": "uint256",
          "name": "",
          "type": "uint256"
        }
      ],
      "name": "commitments",
      "outputs": [
        {
          "internalType": "address",
          "name": "contractor",
          "type": "address"
        },
        {
          "internalType": "address",
          "name": "contractee",
          "type": "address"
        },
        {
          "internalType": "string",
          "name": "Contract",
          "type": "string"
        },
        {
          "internalType": "uint256",
          "name": "amount",
          "type": "uint256"
        },
        {
          "internalType": "bool",
          "name": "status",
          "type": "bool"
        },
        {
          "internalType": "bool",
          "name": "contracteeStatus",
          "type": "bool"
        },
        {
          "internalType": "bool",
          "name": "contractorStatus",
          "type": "bool"
        }
      ],
      "stateMutability": "view",
      "type": "function"
    },
    {
      "inputs": [],
      "name": "totalCommitments",
      "outputs": [
        {
          "internalType": "uint256",
          "name": "",
          "type": "uint256"
        }
      ],
      "stateMutability": "view",
      "type": "function"
    },
    {
      "inputs": [
        {
          "internalType": "string",
          "name": "_Contract",
          "type": "string"
        }
      ],
      "name": "postCommitment",
      "outputs": [],
      "stateMutability": "payable",
      "type": "function"
    }
  ],
  "bytecode": "0x608060405260006001819055506106ff8061001b6000396000f3fe6080604052600436106100345760003560e01c806349ce8997146100395780634d52f45b1461017b57806378bb86d3146101f4575b600080fd5b34801561004557600080fd5b506100726004803603602081101561005c57600080fd5b810190808035906020019092919050505061021f565b604051808873ffffffffffffffffffffffffffffffffffffffff1673ffffffffffffffffffffffffffffffffffffffff1681526020018773ffffffffffffffffffffffffffffffffffffffff1673ffffffffffffffffffffffffffffffffffffffff16815260200180602001868152602001851515151581526020018415151515815260200183151515158152602001828103825287818151815260200191508051906020019080838360005b8381101561013a57808201518184015260208101905061011f565b50505050905090810190601f1680156101675780820380516001836020036101000a031916815260200191505b509850505050505050505060405180910390f35b6101f26004803603602081101561019157600080fd5b81019080803590602001906401000000008111156101ae57600080fd5b8201836020820111156101c057600080fd5b803590602001918460018302840111640100000000831117156101e257600080fd5b909192939192939050505061036d565b005b34801561020057600080fd5b5061020961061e565b6040518082815260200191505060405180910390f35b6000818154811061022c57fe5b90600052602060002090600502016000915090508060000160009054906101000a900473ffffffffffffffffffffffffffffffffffffffff16908060010160009054906101000a900473ffffffffffffffffffffffffffffffffffffffff1690806002018054600181600116156101000203166002900480601f0160208091040260200160405190810160405280929190818152602001828054600181600116156101000203166002900480156103245780601f106102f957610100808354040283529160200191610324565b820191906000526020600020905b81548152906001019060200180831161030757829003601f168201915b5050505050908060030154908060040160009054906101000a900460ff16908060040160019054906101000a900460ff16908060040160029054906101000a900460ff16905087565b60006040518060e001604052803373ffffffffffffffffffffffffffffffffffffffff168152602001600073ffffffffffffffffffffffffffffffffffffffff16815260200184848080601f016020809104026020016040519081016040528093929190818152602001838380828437600081840152601f19601f82011690508083019250505050505050815260200134815260200160001515815260200160001515815260200160001515815250908060018154018082558091505060019003906000526020600020906005020160009091909190915060008201518160000160006101000a81548173ffffffffffffffffffffffffffffffffffffffff021916908373ffffffffffffffffffffffffffffffffffffffff16021790555060208201518160010160006101000a81548173ffffffffffffffffffffffffffffffffffffffff021916908373ffffffffffffffffffffffffffffffffffffffff16021790555060408201518160020190805190602001906104ef929190610624565b506060820151816003015560808201518160040160006101000a81548160ff02191690831515021790555060a08201518160040160016101000a81548160ff02191690831515021790555060c08201518160040160026101000a81548160ff02191690831515021790555050507fc12ac47b2aae360edaf50d9026e4787e4c242da7640c48df6b9ab7c3bc8d9901338383346000604051808673ffffffffffffffffffffffffffffffffffffffff1673ffffffffffffffffffffffffffffffffffffffff16815260200180602001848152602001831515151581526020018281038252868682818152602001925080828437600081840152601f19601f820116905080830192505050965050505050505060405180910390a16001600081548092919060010191905055505050565b60015481565b828054600181600116156101000203166002900490600052602060002090601f016020900481019282601f1061066557805160ff1916838001178555610693565b82800160010185558215610693579182015b82811115610692578251825591602001919060010190610677565b5b5090506106a091906106a4565b5090565b6106c691905b808211156106c25760008160009055506001016106aa565b5090565b9056fea2646970667358221220da310a49d4c7d875ffa58e8b0da975dcde5bc6ee0519e40d27b4cb586e35a62464736f6c63430006040033",
  "source": "pragma solidity >=0.4.21 <0.7.0;\n\nimport \"./Commitments.sol\";\n\ncontract AddCommitment is Commitments {\n    event NewCommitment(\n        address _contractor,\n        string Contract,\n        uint256 amount,\n        bool status\n    );\n\n    function postCommitment(string calldata _Contract)\n        external\n        payable\n    {\n        commitments.push(\n            Commitment({\n                contractor: msg.sender,\n                contractee: address(0),\n                Contract: _Contract,\n                amount: msg.value,\n                status: false,\n                contracteeStatus: false,\n                contractorStatus: false\n            })\n        );\n        emit NewCommitment(msg.sender, _Contract, msg.value, false);\n        totalCommitments++;\n    }\n\n    function transferAmount(uint256 _amount, address _contractee)\n        internal\n        returns (bool)\n    {\n        address payable contracte = address(uint160(_contractee));\n        contracte.transfer(_amount);\n        return true;\n    }\n}\n",
  "sourcePath": "/home/sivaraman/Projects/Commitments/contracts/AddCommitment.sol",
  "compiler": {
    "name": "solc",
    "version": "0.6.4+commit.1dca32f3.Emscripten.clang"
  },
  "schemaVersion": "3.3.1",
  "updatedAt": "2020-10-27T14:15:24.438Z",
  "devdoc": {
    "methods": {}
  },
  "userdoc": {
    "methods": {}
  }
}