{
  "contractName": "AssignContractee",
  "abi": [
    {
      "anonymous": false,
      "inputs": [
        {
          "indexed": false,
          "internalType": "address",
          "name": "contractee",
          "type": "address"
        },
        {
          "indexed": false,
          "internalType": "uint256",
          "name": "_id",
          "type": "uint256"
        }
      ],
      "name": "AssignedContractee",
      "type": "event"
    },
    {
      "anonymous": false,
      "inputs": [
        {
          "indexed": false,
          "internalType": "address",
          "name": "_contractor",
          "type": "address"
        },
        {
          "indexed": false,
          "internalType": "string",
          "name": "Contract",
          "type": "string"
        },
        {
          "indexed": false,
          "internalType": "uint256",
          "name": "amount",
          "type": "uint256"
        },
        {
          "indexed": false,
          "internalType": "bool",
          "name": "status",
          "type": "bool"
        }
      ],
      "name": "NewCommitment",
      "type": "event"
    },
    {
      "inputs": [
        {
          "internalType": "uint256",
          "name": "",
          "type": "uint256"
        }
      ],
      "name": "commitments",
      "outputs": [
        {
          "internalType": "address",
          "name": "contractor",
          "type": "address"
        },
        {
          "internalType": "address",
          "name": "contractee",
          "type": "address"
        },
        {
          "internalType": "string",
          "name": "Contract",
          "type": "string"
        },
        {
          "internalType": "uint256",
          "name": "amount",
          "type": "uint256"
        },
        {
          "internalType": "bool",
          "name": "status",
          "type": "bool"
        },
        {
          "internalType": "bool",
          "name": "contracteeStatus",
          "type": "bool"
        },
        {
          "internalType": "bool",
          "name": "contractorStatus",
          "type": "bool"
        }
      ],
      "stateMutability": "view",
      "type": "function"
    },
    {
      "inputs": [
        {
          "internalType": "string",
          "name": "_Contract",
          "type": "string"
        }
      ],
      "name": "postCommitment",
      "outputs": [],
      "stateMutability": "payable",
      "type": "function"
    },
    {
      "inputs": [],
      "name": "totalCommitments",
      "outputs": [
        {
          "internalType": "uint256",
          "name": "",
          "type": "uint256"
        }
      ],
      "stateMutability": "view",
      "type": "function"
    },
    {
      "inputs": [
        {
          "internalType": "uint256",
          "name": "_id",
          "type": "uint256"
        }
      ],
      "name": "assigncontractee",
      "outputs": [],
      "stateMutability": "nonpayable",
      "type": "function"
    },
    {
      "inputs": [],
      "name": "assignedContracts",
      "outputs": [
        {
          "internalType": "uint256[]",
          "name": "",
          "type": "uint256[]"
        }
      ],
      "stateMutability": "view",
      "type": "function"
    }
  ],
  "bytecode": "0x608060405260006001819055506109af8061001b6000396000f3fe6080604052600436106100495760003560e01c806222d6b51461004e57806349ce8997146100ba5780634d52f45b146101fc57806378bb86d314610275578063dfc3aead146102a0575b600080fd5b34801561005a57600080fd5b506100636102db565b6040518080602001828103825283818151815260200191508051906020019060200280838360005b838110156100a657808201518184015260208101905061008b565b505050509050019250505060405180910390f35b3480156100c657600080fd5b506100f3600480360360208110156100dd57600080fd5b8101908080359060200190929190505050610364565b604051808873ffffffffffffffffffffffffffffffffffffffff1673ffffffffffffffffffffffffffffffffffffffff1681526020018773ffffffffffffffffffffffffffffffffffffffff1673ffffffffffffffffffffffffffffffffffffffff16815260200180602001868152602001851515151581526020018415151515815260200183151515158152602001828103825287818151815260200191508051906020019080838360005b838110156101bb5780820151818401526020810190506101a0565b50505050905090810190601f1680156101e85780820380516001836020036101000a031916815260200191505b509850505050505050505060405180910390f35b6102736004803603602081101561021257600080fd5b810190808035906020019064010000000081111561022f57600080fd5b82018360208201111561024157600080fd5b8035906020019184600183028401116401000000008311171561026357600080fd5b90919293919293905050506104b2565b005b34801561028157600080fd5b5061028a610763565b6040518082815260200191505060405180910390f35b3480156102ac57600080fd5b506102d9600480360360208110156102c357600080fd5b8101908080359060200190929190505050610769565b005b60606000809050606060008090505b60015481101561035b57600115156000828154811061030557fe5b906000526020600020906005020160040160009054906101000a900460ff161515141561034e578082848151811061033957fe5b60200260200101818152505082806001019350505b80806001019150506102ea565b50809250505090565b6000818154811061037157fe5b90600052602060002090600502016000915090508060000160009054906101000a900473ffffffffffffffffffffffffffffffffffffffff16908060010160009054906101000a900473ffffffffffffffffffffffffffffffffffffffff1690806002018054600181600116156101000203166002900480601f0160208091040260200160405190810160405280929190818152602001828054600181600116156101000203166002900480156104695780601f1061043e57610100808354040283529160200191610469565b820191906000526020600020905b81548152906001019060200180831161044c57829003601f168201915b5050505050908060030154908060040160009054906101000a900460ff16908060040160019054906101000a900460ff16908060040160029054906101000a900460ff16905087565b60006040518060e001604052803373ffffffffffffffffffffffffffffffffffffffff168152602001600073ffffffffffffffffffffffffffffffffffffffff16815260200184848080601f016020809104026020016040519081016040528093929190818152602001838380828437600081840152601f19601f82011690508083019250505050505050815260200134815260200160001515815260200160001515815260200160001515815250908060018154018082558091505060019003906000526020600020906005020160009091909190915060008201518160000160006101000a81548173ffffffffffffffffffffffffffffffffffffffff021916908373ffffffffffffffffffffffffffffffffffffffff16021790555060208201518160010160006101000a81548173ffffffffffffffffffffffffffffffffffffffff021916908373ffffffffffffffffffffffffffffffffffffffff16021790555060408201518160020190805190602001906106349291906108d4565b506060820151816003015560808201518160040160006101000a81548160ff02191690831515021790555060a08201518160040160016101000a81548160ff02191690831515021790555060c08201518160040160026101000a81548160ff02191690831515021790555050507fc12ac47b2aae360edaf50d9026e4787e4c242da7640c48df6b9ab7c3bc8d9901338383346000604051808673ffffffffffffffffffffffffffffffffffffffff1673ffffffffffffffffffffffffffffffffffffffff16815260200180602001848152602001831515151581526020018281038252868682818152602001925080828437600081840152601f19601f820116905080830192505050965050505050505060405180910390a16001600081548092919060010191905055505050565b60015481565b600080828154811061077757fe5b906000526020600020906005020190503373ffffffffffffffffffffffffffffffffffffffff168160000160009054906101000a900473ffffffffffffffffffffffffffffffffffffffff1673ffffffffffffffffffffffffffffffffffffffff16141580156107fc5750600015158160040160009054906101000a900460ff161515145b61080557600080fd5b338160010160006101000a81548173ffffffffffffffffffffffffffffffffffffffff021916908373ffffffffffffffffffffffffffffffffffffffff16021790555060018160040160006101000a81548160ff0219169083151502179055507fe39c4bce2818e9e16bfec179d17dbf100a313e75eb8867ccaae6e09d976c7e0b3383604051808373ffffffffffffffffffffffffffffffffffffffff1673ffffffffffffffffffffffffffffffffffffffff1681526020018281526020019250505060405180910390a15050565b828054600181600116156101000203166002900490600052602060002090601f016020900481019282601f1061091557805160ff1916838001178555610943565b82800160010185558215610943579182015b82811115610942578251825591602001919060010190610927565b5b5090506109509190610954565b5090565b61097691905b8082111561097257600081600090555060010161095a565b5090565b9056fea26469706673582212209747b65549279d6666fd58d1a9bd206c7cb1b5665463607042db59aa52b1b9e564736f6c63430006040033",
  "source": "pragma solidity >=0.4.21 <0.7.0;\n\nimport \"./AddCommitment.sol\";\n\ncontract AssignContractee is AddCommitment {\n    event AssignedContractee(address contractee, uint256 _id);\n\n    // check here!!!!!!!!!!!!!  uint256!!!\n    function assigncontractee(uint256 _id) external {\n        Commitment storage mycommitment = commitments[_id];\n        require(mycommitment.contractor != msg.sender && mycommitment.status == false);\n        mycommitment.contractee = msg.sender;\n        mycommitment.status = true;\n        emit AssignedContractee(msg.sender, _id);\n    }\n\n    function assignedContracts() external view returns (uint256[] memory) {\n        uint256 counter = 0;\n        uint256[] memory assignedCommitments;\n        for (uint256 i = 0; i < totalCommitments; i++) {\n            if (commitments[i].status == true) {\n                assignedCommitments[counter] = i;\n                counter++;\n            }\n        }\n        return assignedCommitments;\n    }\n}\n",
  "sourcePath": "/home/mohan/Documents/HACKS/Commitments/contracts/AssignContractee.sol",
  "compiler": {
    "name": "solc",
    "version": "0.6.4+commit.1dca32f3.Emscripten.clang"
  },
  "schemaVersion": "3.3.1",
  "updatedAt": "2020-10-29T11:25:06.427Z",
  "devdoc": {
    "methods": {}
  },
  "userdoc": {
    "methods": {}
  }
}