{
  "contractName": "Commitments",
  "abi": [
    {
      "inputs": [],
      "stateMutability": "nonpayable",
      "type": "constructor"
    },
    {
      "inputs": [
        {
          "internalType": "uint256",
          "name": "",
          "type": "uint256"
        }
      ],
      "name": "commitments",
      "outputs": [
        {
          "internalType": "address",
          "name": "contractor",
          "type": "address"
        },
        {
          "internalType": "address",
          "name": "contractee",
          "type": "address"
        },
        {
          "internalType": "string",
          "name": "Contract",
          "type": "string"
        },
        {
          "internalType": "uint256",
          "name": "amount",
          "type": "uint256"
        },
        {
          "internalType": "bool",
          "name": "status",
          "type": "bool"
        },
        {
          "internalType": "bool",
          "name": "contracteeStatus",
          "type": "bool"
        },
        {
          "internalType": "bool",
          "name": "contractorStatus",
          "type": "bool"
        }
      ],
      "stateMutability": "view",
      "type": "function"
    },
    {
      "inputs": [],
      "name": "totalCommitments",
      "outputs": [
        {
          "internalType": "uint256",
          "name": "",
          "type": "uint256"
        }
      ],
      "stateMutability": "view",
      "type": "function"
    }
  ],
  "bytecode": "0x608060405234801561001057600080fd5b506000600181905550610318806100286000396000f3fe608060405234801561001057600080fd5b50600436106100365760003560e01c806349ce89971461003b57806378bb86d314610170575b600080fd5b6100676004803603602081101561005157600080fd5b810190808035906020019092919050505061018e565b604051808873ffffffffffffffffffffffffffffffffffffffff1673ffffffffffffffffffffffffffffffffffffffff1681526020018773ffffffffffffffffffffffffffffffffffffffff1673ffffffffffffffffffffffffffffffffffffffff16815260200180602001868152602001851515151581526020018415151515815260200183151515158152602001828103825287818151815260200191508051906020019080838360005b8381101561012f578082015181840152602081019050610114565b50505050905090810190601f16801561015c5780820380516001836020036101000a031916815260200191505b509850505050505050505060405180910390f35b6101786102dc565b6040518082815260200191505060405180910390f35b6000818154811061019b57fe5b90600052602060002090600502016000915090508060000160009054906101000a900473ffffffffffffffffffffffffffffffffffffffff16908060010160009054906101000a900473ffffffffffffffffffffffffffffffffffffffff1690806002018054600181600116156101000203166002900480601f0160208091040260200160405190810160405280929190818152602001828054600181600116156101000203166002900480156102935780601f1061026857610100808354040283529160200191610293565b820191906000526020600020905b81548152906001019060200180831161027657829003601f168201915b5050505050908060030154908060040160009054906101000a900460ff16908060040160019054906101000a900460ff16908060040160029054906101000a900460ff16905087565b6001548156fea26469706673582212203453dd6361231d8dafb66c2d34cb4a64d733c794ac30c5e4589d845198b2002264736f6c63430006040033",
  "source": "pragma solidity >=0.4.21 <0.7.0;\n\ncontract Commitments {\n    struct Commitment {\n        address contractor;\n        address contractee;\n        string Contract;\n        uint256 amount;\n        bool status;\n        bool contracteeStatus;\n        bool contractorStatus;\n    }\n\n    Commitment[] public commitments;\n\n    uint256 public totalCommitments;\n\n    constructor() public {\n        totalCommitments = 0;\n    }\n}\n",
  "sourcePath": "/home/sivaraman/Projects/Commitments/contracts/Commitments.sol",
  "compiler": {
    "name": "solc",
    "version": "0.6.4+commit.1dca32f3.Emscripten.clang"
  },
  "schemaVersion": "3.3.1",
  "updatedAt": "2020-10-27T14:15:24.468Z",
  "devdoc": {
    "methods": {}
  },
  "userdoc": {
    "methods": {}
  }
}