{
  "contractName": "DeleteCommitment",
  "abi": [
    {
      "anonymous": false,
      "inputs": [
        {
          "indexed": false,
          "internalType": "address",
          "name": "contractee",
          "type": "address"
        },
        {
          "indexed": false,
          "internalType": "uint256",
          "name": "_id",
          "type": "uint256"
        }
      ],
      "name": "AssignedContractee",
      "type": "event"
    },
    {
      "anonymous": false,
      "inputs": [],
      "name": "EmergencyEvent",
      "type": "event"
    },
    {
      "anonymous": false,
      "inputs": [
        {
          "indexed": false,
          "internalType": "address",
          "name": "_contractor",
          "type": "address"
        },
        {
          "indexed": false,
          "internalType": "address",
          "name": "_contractee",
          "type": "address"
        },
        {
          "indexed": false,
          "internalType": "string",
          "name": "Contract",
          "type": "string"
        }
      ],
      "name": "EndCommitmentContracteeEvent",
      "type": "event"
    },
    {
      "anonymous": false,
      "inputs": [
        {
          "indexed": false,
          "internalType": "address",
          "name": "_contractor",
          "type": "address"
        },
        {
          "indexed": false,
          "internalType": "string",
          "name": "Contract",
          "type": "string"
        },
        {
          "indexed": false,
          "internalType": "uint256",
          "name": "amount",
          "type": "uint256"
        },
        {
          "indexed": false,
          "internalType": "bool",
          "name": "status",
          "type": "bool"
        }
      ],
      "name": "NewCommitment",
      "type": "event"
    },
    {
      "anonymous": false,
      "inputs": [
        {
          "indexed": false,
          "internalType": "address",
          "name": "_contractor",
          "type": "address"
        },
        {
          "indexed": false,
          "internalType": "address",
          "name": "_contractee",
          "type": "address"
        },
        {
          "indexed": false,
          "internalType": "uint256",
          "name": "_amount",
          "type": "uint256"
        }
      ],
      "name": "transferAmountEvent",
      "type": "event"
    },
    {
      "inputs": [
        {
          "internalType": "uint256",
          "name": "_id",
          "type": "uint256"
        }
      ],
      "name": "EndCommitmentContractee",
      "outputs": [],
      "stateMutability": "nonpayable",
      "type": "function"
    },
    {
      "inputs": [
        {
          "internalType": "uint256",
          "name": "_id",
          "type": "uint256"
        }
      ],
      "name": "EndCommitmentContractor",
      "outputs": [],
      "stateMutability": "nonpayable",
      "type": "function"
    },
    {
      "inputs": [
        {
          "internalType": "uint256",
          "name": "_id",
          "type": "uint256"
        }
      ],
      "name": "assigncontractee",
      "outputs": [],
      "stateMutability": "nonpayable",
      "type": "function"
    },
    {
      "inputs": [],
      "name": "assignedContracts",
      "outputs": [
        {
          "internalType": "uint256[]",
          "name": "",
          "type": "uint256[]"
        }
      ],
      "stateMutability": "view",
      "type": "function",
      "constant": true
    },
    {
      "inputs": [
        {
          "internalType": "uint256",
          "name": "",
          "type": "uint256"
        }
      ],
      "name": "commitments",
      "outputs": [
        {
          "internalType": "address",
          "name": "contractor",
          "type": "address"
        },
        {
          "internalType": "address",
          "name": "contractee",
          "type": "address"
        },
        {
          "internalType": "string",
          "name": "Contract",
          "type": "string"
        },
        {
          "internalType": "uint256",
          "name": "amount",
          "type": "uint256"
        },
        {
          "internalType": "bool",
          "name": "status",
          "type": "bool"
        },
        {
          "internalType": "bool",
          "name": "contracteeStatus",
          "type": "bool"
        },
        {
          "internalType": "bool",
          "name": "contractorStatus",
          "type": "bool"
        }
      ],
      "stateMutability": "view",
      "type": "function",
      "constant": true
    },
    {
      "inputs": [
        {
          "internalType": "string",
          "name": "_Contract",
          "type": "string"
        }
      ],
      "name": "postCommitment",
      "outputs": [],
      "stateMutability": "payable",
      "type": "function",
      "payable": true
    },
    {
      "inputs": [],
      "name": "totalCommitments",
      "outputs": [
        {
          "internalType": "uint256",
          "name": "",
          "type": "uint256"
        }
      ],
      "stateMutability": "view",
      "type": "function",
      "constant": true
    },
    {
      "inputs": [
        {
          "internalType": "uint256",
          "name": "_id",
          "type": "uint256"
        }
      ],
      "name": "deleteByContractor",
      "outputs": [],
      "stateMutability": "nonpayable",
      "type": "function"
    }
  ],
  "bytecode": "0x6080604052600060018190555061154e8061001b6000396000f3fe60806040526004361061007a5760003560e01c806378bb86d31161004e57806378bb86d3146102e15780637c7f51be1461030c578063dfc3aead14610347578063ed270e19146103825761007a565b806222d6b51461007f5780632132c32f146100eb57806349ce8997146101265780634d52f45b14610268575b600080fd5b34801561008b57600080fd5b506100946103bd565b6040518080602001828103825283818151815260200191508051906020019060200280838360005b838110156100d75780820151818401526020810190506100bc565b505050509050019250505060405180910390f35b3480156100f757600080fd5b506101246004803603602081101561010e57600080fd5b8101908080359060200190929190505050610446565b005b34801561013257600080fd5b5061015f6004803603602081101561014957600080fd5b81019080803590602001909291905050506106e4565b604051808873ffffffffffffffffffffffffffffffffffffffff1673ffffffffffffffffffffffffffffffffffffffff1681526020018773ffffffffffffffffffffffffffffffffffffffff1673ffffffffffffffffffffffffffffffffffffffff16815260200180602001868152602001851515151581526020018415151515815260200183151515158152602001828103825287818151815260200191508051906020019080838360005b8381101561022757808201518184015260208101905061020c565b50505050905090810190601f1680156102545780820380516001836020036101000a031916815260200191505b509850505050505050505060405180910390f35b6102df6004803603602081101561027e57600080fd5b810190808035906020019064010000000081111561029b57600080fd5b8201836020820111156102ad57600080fd5b803590602001918460018302840111640100000000831117156102cf57600080fd5b9091929391929390505050610832565b005b3480156102ed57600080fd5b506102f6610ae3565b6040518082815260200191505060405180910390f35b34801561031857600080fd5b506103456004803603602081101561032f57600080fd5b8101908080359060200190929190505050610ae9565b005b34801561035357600080fd5b506103806004803603602081101561036a57600080fd5b8101908080359060200190929190505050610b9f565b005b34801561038e57600080fd5b506103bb600480360360208110156103a557600080fd5b8101908080359060200190929190505050610ce9565b005b60606000809050606060008090505b60015481101561043d5760011515600082815481106103e757fe5b906000526020600020906005020160040160009054906101000a900460ff1615151415610430578082848151811061041b57fe5b60200260200101818152505082806001019350505b80806001019150506103cc565b50809250505090565b3373ffffffffffffffffffffffffffffffffffffffff166000828154811061046a57fe5b906000526020600020906005020160010160009054906101000a900473ffffffffffffffffffffffffffffffffffffffff1673ffffffffffffffffffffffffffffffffffffffff161480156104e75750600081815481106104c757fe5b906000526020600020906005020160040160009054906101000a900460ff165b6104f057600080fd5b6001600082815481106104ff57fe5b906000526020600020906005020160040160016101000a81548160ff0219169083151502179055507f7cb6aa3f663e7fe0889cfdf9334ced8a2c2ab8d44f1378aba757b0eea2ec80a06000828154811061055557fe5b906000526020600020906005020160000160009054906101000a900473ffffffffffffffffffffffffffffffffffffffff166000838154811061059457fe5b906000526020600020906005020160010160009054906101000a900473ffffffffffffffffffffffffffffffffffffffff16600084815481106105d357fe5b9060005260206000209060050201600201604051808473ffffffffffffffffffffffffffffffffffffffff1673ffffffffffffffffffffffffffffffffffffffff1681526020018373ffffffffffffffffffffffffffffffffffffffff1673ffffffffffffffffffffffffffffffffffffffff168152602001806020018281038252838181546001816001161561010002031660029004815260200191508054600181600116156101000203166002900480156106d15780601f106106a6576101008083540402835291602001916106d1565b820191906000526020600020905b8154815290600101906020018083116106b457829003601f168201915b505094505050505060405180910390a150565b600081815481106106f157fe5b90600052602060002090600502016000915090508060000160009054906101000a900473ffffffffffffffffffffffffffffffffffffffff16908060010160009054906101000a900473ffffffffffffffffffffffffffffffffffffffff1690806002018054600181600116156101000203166002900480601f0160208091040260200160405190810160405280929190818152602001828054600181600116156101000203166002900480156107e95780601f106107be576101008083540402835291602001916107e9565b820191906000526020600020905b8154815290600101906020018083116107cc57829003601f168201915b5050505050908060030154908060040160009054906101000a900460ff16908060040160019054906101000a900460ff16908060040160029054906101000a900460ff16905087565b60006040518060e001604052803373ffffffffffffffffffffffffffffffffffffffff168152602001600073ffffffffffffffffffffffffffffffffffffffff16815260200184848080601f016020809104026020016040519081016040528093929190818152602001838380828437600081840152601f19601f82011690508083019250505050505050815260200134815260200160001515815260200160001515815260200160001515815250908060018154018082558091505060019003906000526020600020906005020160009091909190915060008201518160000160006101000a81548173ffffffffffffffffffffffffffffffffffffffff021916908373ffffffffffffffffffffffffffffffffffffffff16021790555060208201518160010160006101000a81548173ffffffffffffffffffffffffffffffffffffffff021916908373ffffffffffffffffffffffffffffffffffffffff16021790555060408201518160020190805190602001906109b49291906113a4565b506060820151816003015560808201518160040160006101000a81548160ff02191690831515021790555060a08201518160040160016101000a81548160ff02191690831515021790555060c08201518160040160026101000a81548160ff02191690831515021790555050507fc12ac47b2aae360edaf50d9026e4787e4c242da7640c48df6b9ab7c3bc8d9901338383346000604051808673ffffffffffffffffffffffffffffffffffffffff1673ffffffffffffffffffffffffffffffffffffffff16815260200180602001848152602001831515151581526020018281038252868682818152602001925080828437600081840152601f19601f820116905080830192505050965050505050505060405180910390a16001600081548092919060010191905055505050565b60015481565b3373ffffffffffffffffffffffffffffffffffffffff1660008281548110610b0d57fe5b906000526020600020906005020160000160009054906101000a900473ffffffffffffffffffffffffffffffffffffffff1673ffffffffffffffffffffffffffffffffffffffff16148015610b8a575060008181548110610b6a57fe5b906000526020600020906005020160040160009054906101000a900460ff165b610b9357600080fd5b610b9c81610fb8565b50565b6000808281548110610bad57fe5b906000526020600020906005020190503373ffffffffffffffffffffffffffffffffffffffff168160000160009054906101000a900473ffffffffffffffffffffffffffffffffffffffff1673ffffffffffffffffffffffffffffffffffffffff161415610c1a57600080fd5b338160010160006101000a81548173ffffffffffffffffffffffffffffffffffffffff021916908373ffffffffffffffffffffffffffffffffffffffff16021790555060018160040160006101000a81548160ff0219169083151502179055507fe39c4bce2818e9e16bfec179d17dbf100a313e75eb8867ccaae6e09d976c7e0b3383604051808373ffffffffffffffffffffffffffffffffffffffff1673ffffffffffffffffffffffffffffffffffffffff1681526020018281526020019250505060405180910390a15050565b3373ffffffffffffffffffffffffffffffffffffffff1660008281548110610d0d57fe5b906000526020600020906005020160000160009054906101000a900473ffffffffffffffffffffffffffffffffffffffff1673ffffffffffffffffffffffffffffffffffffffff16148015610d8a575060008181548110610d6a57fe5b906000526020600020906005020160040160009054906101000a900460ff165b8015610dbe575060008181548110610d9e57fe5b906000526020600020906005020160040160019054906101000a900460ff165b610dc757600080fd5b600160008281548110610dd657fe5b906000526020600020906005020160040160026101000a81548160ff0219169083151502179055506000610e6660008381548110610e1057fe5b90600052602060002090600502016003015460008481548110610e2f57fe5b906000526020600020906005020160010160009054906101000a900473ffffffffffffffffffffffffffffffffffffffff1661134c565b905080610e7257600080fd5b7f552e72bac16504b1c8b3f9a089007725e113c716d8d7069f6080c947750401a660008381548110610ea057fe5b906000526020600020906005020160000160009054906101000a900473ffffffffffffffffffffffffffffffffffffffff1660008481548110610edf57fe5b906000526020600020906005020160010160009054906101000a900473ffffffffffffffffffffffffffffffffffffffff1660008581548110610f1e57fe5b906000526020600020906005020160030154604051808473ffffffffffffffffffffffffffffffffffffffff1673ffffffffffffffffffffffffffffffffffffffff1681526020018373ffffffffffffffffffffffffffffffffffffffff1673ffffffffffffffffffffffffffffffffffffffff168152602001828152602001935050505060405180910390a1610fb482610fb8565b5050565b60008181548110610fc557fe5b9060005260206000209060050201600080820160006101000a81549073ffffffffffffffffffffffffffffffffffffffff02191690556001820160006101000a81549073ffffffffffffffffffffffffffffffffffffffff02191690556002820160006110329190611424565b60038201600090556004820160006101000a81549060ff02191690556004820160016101000a81549060ff02191690556004820160026101000a81549060ff02191690555050600180541461130a57600060018054038154811061109257fe5b9060005260206000209060050201600082815481106110ad57fe5b90600052602060002090600502016000820160009054906101000a900473ffffffffffffffffffffffffffffffffffffffff168160000160006101000a81548173ffffffffffffffffffffffffffffffffffffffff021916908373ffffffffffffffffffffffffffffffffffffffff1602179055506001820160009054906101000a900473ffffffffffffffffffffffffffffffffffffffff168160010160006101000a81548173ffffffffffffffffffffffffffffffffffffffff021916908373ffffffffffffffffffffffffffffffffffffffff160217905550600282018160020190805460018160011615610100020316600290046111b092919061146c565b50600382015481600301556004820160009054906101000a900460ff168160040160006101000a81548160ff0219169083151502179055506004820160019054906101000a900460ff168160040160016101000a81548160ff0219169083151502179055506004820160029054906101000a900460ff168160040160026101000a81548160ff021916908315150217905550905050600060018054038154811061125657fe5b9060005260206000209060050201600080820160006101000a81549073ffffffffffffffffffffffffffffffffffffffff02191690556001820160006101000a81549073ffffffffffffffffffffffffffffffffffffffff02191690556002820160006112c39190611424565b60038201600090556004820160006101000a81549060ff02191690556004820160016101000a81549060ff02191690556004820160026101000a81549060ff021916905550505b7f98c60731006c4a01e78ae7527388a876bf6b1f86400a2780581eab1268ebc30d60405160405180910390a16001600081548092919060019003919050555050565b6000808290508073ffffffffffffffffffffffffffffffffffffffff166108fc859081150290604051600060405180830381858888f19350505050158015611398573d6000803e3d6000fd5b50600191505092915050565b828054600181600116156101000203166002900490600052602060002090601f016020900481019282601f106113e557805160ff1916838001178555611413565b82800160010185558215611413579182015b828111156114125782518255916020019190600101906113f7565b5b50905061142091906114f3565b5090565b50805460018160011615610100020316600290046000825580601f1061144a5750611469565b601f01602090049060005260206000209081019061146891906114f3565b5b50565b828054600181600116156101000203166002900490600052602060002090601f016020900481019282601f106114a557805485556114e2565b828001600101855582156114e257600052602060002091601f016020900482015b828111156114e15782548255916001019190600101906114c6565b5b5090506114ef91906114f3565b5090565b61151591905b808211156115115760008160009055506001016114f9565b5090565b9056fea26469706673582212203a994737d54a80456833ddda0a5f00ac482b713b930470cc2cdb5733e9bbae2464736f6c63430006040033",
  "source": "pragma solidity >=0.4.21 <0.7.0;\n\nimport \"./EndCommitment.sol\";\n\ncontract DeleteCommitment is EndCommitment {\n\n    function deleteByContractor(uint256 _id) public {\n        require(\n            commitments[_id].contractor == msg.sender && commitments[_id].status\n        );\n        deleteCommitment(_id);\n    }\n}\n",
  "sourcePath": "/home/mohan/Documents/HACKS/Commitments/contracts/DeleteCommitment.sol",
  "compiler": {
    "name": "solc",
    "version": "0.6.4+commit.1dca32f3.Emscripten.clang"
  },
  "schemaVersion": "3.3.1",
  "updatedAt": "2020-10-26T18:24:36.233Z",
  "networkType": "ethereum",
  "devdoc": {
    "methods": {}
  },
  "userdoc": {
    "methods": {}
  }
}