{
  "contractName": "EndCommitment",
  "abi": [
    {
      "anonymous": false,
      "inputs": [
        {
          "indexed": false,
          "internalType": "address",
          "name": "contractee",
          "type": "address"
        },
        {
          "indexed": false,
          "internalType": "uint256",
          "name": "_id",
          "type": "uint256"
        }
      ],
      "name": "AssignedContractee",
      "type": "event"
    },
    {
      "anonymous": false,
      "inputs": [],
      "name": "EmergencyEvent",
      "type": "event"
    },
    {
      "anonymous": false,
      "inputs": [
        {
          "indexed": false,
          "internalType": "address",
          "name": "_contractor",
          "type": "address"
        },
        {
          "indexed": false,
          "internalType": "address",
          "name": "_contractee",
          "type": "address"
        },
        {
          "indexed": false,
          "internalType": "string",
          "name": "Contract",
          "type": "string"
        }
      ],
      "name": "EndCommitmentContracteeEvent",
      "type": "event"
    },
    {
      "anonymous": false,
      "inputs": [
        {
          "indexed": false,
          "internalType": "address",
          "name": "_contractor",
          "type": "address"
        },
        {
          "indexed": false,
          "internalType": "string",
          "name": "Contract",
          "type": "string"
        },
        {
          "indexed": false,
          "internalType": "uint256",
          "name": "amount",
          "type": "uint256"
        },
        {
          "indexed": false,
          "internalType": "bool",
          "name": "status",
          "type": "bool"
        }
      ],
      "name": "NewCommitment",
      "type": "event"
    },
    {
      "anonymous": false,
      "inputs": [
        {
          "indexed": false,
          "internalType": "address",
          "name": "_contractor",
          "type": "address"
        },
        {
          "indexed": false,
          "internalType": "address",
          "name": "_contractee",
          "type": "address"
        },
        {
          "indexed": false,
          "internalType": "uint256",
          "name": "_amount",
          "type": "uint256"
        }
      ],
      "name": "transferAmountEvent",
      "type": "event"
    },
    {
      "inputs": [
        {
          "internalType": "uint256",
          "name": "_id",
          "type": "uint256"
        }
      ],
      "name": "assigncontractee",
      "outputs": [],
      "stateMutability": "nonpayable",
      "type": "function"
    },
    {
      "inputs": [],
      "name": "assignedContracts",
      "outputs": [
        {
          "internalType": "uint256[]",
          "name": "",
          "type": "uint256[]"
        }
      ],
      "stateMutability": "view",
      "type": "function"
    },
    {
      "inputs": [
        {
          "internalType": "uint256",
          "name": "",
          "type": "uint256"
        }
      ],
      "name": "commitments",
      "outputs": [
        {
          "internalType": "address",
          "name": "contractor",
          "type": "address"
        },
        {
          "internalType": "address",
          "name": "contractee",
          "type": "address"
        },
        {
          "internalType": "string",
          "name": "Contract",
          "type": "string"
        },
        {
          "internalType": "uint256",
          "name": "amount",
          "type": "uint256"
        },
        {
          "internalType": "bool",
          "name": "status",
          "type": "bool"
        },
        {
          "internalType": "bool",
          "name": "contracteeStatus",
          "type": "bool"
        },
        {
          "internalType": "bool",
          "name": "contractorStatus",
          "type": "bool"
        }
      ],
      "stateMutability": "view",
      "type": "function"
    },
    {
      "inputs": [
        {
          "internalType": "string",
          "name": "_Contract",
          "type": "string"
        }
      ],
      "name": "postCommitment",
      "outputs": [],
      "stateMutability": "payable",
      "type": "function"
    },
    {
      "inputs": [],
      "name": "totalCommitments",
      "outputs": [
        {
          "internalType": "uint256",
          "name": "",
          "type": "uint256"
        }
      ],
      "stateMutability": "view",
      "type": "function"
    },
    {
      "inputs": [
        {
          "internalType": "uint256",
          "name": "_id",
          "type": "uint256"
        }
      ],
      "name": "EndCommitmentContractor",
      "outputs": [],
      "stateMutability": "nonpayable",
      "type": "function"
    },
    {
      "inputs": [
        {
          "internalType": "uint256",
          "name": "_id",
          "type": "uint256"
        }
      ],
      "name": "EndCommitmentContractee",
      "outputs": [],
      "stateMutability": "nonpayable",
      "type": "function"
    }
  ],
  "bytecode": "0x608060405260006001819055506114738061001b6000396000f3fe60806040526004361061006f5760003560e01c80634d52f45b1161004e5780634d52f45b1461025d57806378bb86d3146102d6578063dfc3aead14610301578063ed270e191461033c5761006f565b806222d6b5146100745780632132c32f146100e057806349ce89971461011b575b600080fd5b34801561008057600080fd5b50610089610377565b6040518080602001828103825283818151815260200191508051906020019060200280838360005b838110156100cc5780820151818401526020810190506100b1565b505050509050019250505060405180910390f35b3480156100ec57600080fd5b506101196004803603602081101561010357600080fd5b8101908080359060200190929190505050610400565b005b34801561012757600080fd5b506101546004803603602081101561013e57600080fd5b810190808035906020019092919050505061069e565b604051808873ffffffffffffffffffffffffffffffffffffffff1673ffffffffffffffffffffffffffffffffffffffff1681526020018773ffffffffffffffffffffffffffffffffffffffff1673ffffffffffffffffffffffffffffffffffffffff16815260200180602001868152602001851515151581526020018415151515815260200183151515158152602001828103825287818151815260200191508051906020019080838360005b8381101561021c578082015181840152602081019050610201565b50505050905090810190601f1680156102495780820380516001836020036101000a031916815260200191505b509850505050505050505060405180910390f35b6102d46004803603602081101561027357600080fd5b810190808035906020019064010000000081111561029057600080fd5b8201836020820111156102a257600080fd5b803590602001918460018302840111640100000000831117156102c457600080fd5b90919293919293905050506107ec565b005b3480156102e257600080fd5b506102eb610a9d565b6040518082815260200191505060405180910390f35b34801561030d57600080fd5b5061033a6004803603602081101561032457600080fd5b8101908080359060200190929190505050610aa3565b005b34801561034857600080fd5b506103756004803603602081101561035f57600080fd5b8101908080359060200190929190505050610c0e565b005b60606000809050606060008090505b6001548110156103f75760011515600082815481106103a157fe5b906000526020600020906005020160040160009054906101000a900460ff16151514156103ea57808284815181106103d557fe5b60200260200101818152505082806001019350505b8080600101915050610386565b50809250505090565b3373ffffffffffffffffffffffffffffffffffffffff166000828154811061042457fe5b906000526020600020906005020160010160009054906101000a900473ffffffffffffffffffffffffffffffffffffffff1673ffffffffffffffffffffffffffffffffffffffff161480156104a157506000818154811061048157fe5b906000526020600020906005020160040160009054906101000a900460ff165b6104aa57600080fd5b6001600082815481106104b957fe5b906000526020600020906005020160040160016101000a81548160ff0219169083151502179055507f7cb6aa3f663e7fe0889cfdf9334ced8a2c2ab8d44f1378aba757b0eea2ec80a06000828154811061050f57fe5b906000526020600020906005020160000160009054906101000a900473ffffffffffffffffffffffffffffffffffffffff166000838154811061054e57fe5b906000526020600020906005020160010160009054906101000a900473ffffffffffffffffffffffffffffffffffffffff166000848154811061058d57fe5b9060005260206000209060050201600201604051808473ffffffffffffffffffffffffffffffffffffffff1673ffffffffffffffffffffffffffffffffffffffff1681526020018373ffffffffffffffffffffffffffffffffffffffff1673ffffffffffffffffffffffffffffffffffffffff1681526020018060200182810382528381815460018160011615610100020316600290048152602001915080546001816001161561010002031660029004801561068b5780601f106106605761010080835404028352916020019161068b565b820191906000526020600020905b81548152906001019060200180831161066e57829003601f168201915b505094505050505060405180910390a150565b600081815481106106ab57fe5b90600052602060002090600502016000915090508060000160009054906101000a900473ffffffffffffffffffffffffffffffffffffffff16908060010160009054906101000a900473ffffffffffffffffffffffffffffffffffffffff1690806002018054600181600116156101000203166002900480601f0160208091040260200160405190810160405280929190818152602001828054600181600116156101000203166002900480156107a35780601f10610778576101008083540402835291602001916107a3565b820191906000526020600020905b81548152906001019060200180831161078657829003601f168201915b5050505050908060030154908060040160009054906101000a900460ff16908060040160019054906101000a900460ff16908060040160029054906101000a900460ff16905087565b60006040518060e001604052803373ffffffffffffffffffffffffffffffffffffffff168152602001600073ffffffffffffffffffffffffffffffffffffffff16815260200184848080601f016020809104026020016040519081016040528093929190818152602001838380828437600081840152601f19601f82011690508083019250505050505050815260200134815260200160001515815260200160001515815260200160001515815250908060018154018082558091505060019003906000526020600020906005020160009091909190915060008201518160000160006101000a81548173ffffffffffffffffffffffffffffffffffffffff021916908373ffffffffffffffffffffffffffffffffffffffff16021790555060208201518160010160006101000a81548173ffffffffffffffffffffffffffffffffffffffff021916908373ffffffffffffffffffffffffffffffffffffffff160217905550604082015181600201908051906020019061096e9291906112c9565b506060820151816003015560808201518160040160006101000a81548160ff02191690831515021790555060a08201518160040160016101000a81548160ff02191690831515021790555060c08201518160040160026101000a81548160ff02191690831515021790555050507fc12ac47b2aae360edaf50d9026e4787e4c242da7640c48df6b9ab7c3bc8d9901338383346000604051808673ffffffffffffffffffffffffffffffffffffffff1673ffffffffffffffffffffffffffffffffffffffff16815260200180602001848152602001831515151581526020018281038252868682818152602001925080828437600081840152601f19601f820116905080830192505050965050505050505060405180910390a16001600081548092919060010191905055505050565b60015481565b6000808281548110610ab157fe5b906000526020600020906005020190503373ffffffffffffffffffffffffffffffffffffffff168160000160009054906101000a900473ffffffffffffffffffffffffffffffffffffffff1673ffffffffffffffffffffffffffffffffffffffff1614158015610b365750600015158160040160009054906101000a900460ff161515145b610b3f57600080fd5b338160010160006101000a81548173ffffffffffffffffffffffffffffffffffffffff021916908373ffffffffffffffffffffffffffffffffffffffff16021790555060018160040160006101000a81548160ff0219169083151502179055507fe39c4bce2818e9e16bfec179d17dbf100a313e75eb8867ccaae6e09d976c7e0b3383604051808373ffffffffffffffffffffffffffffffffffffffff1673ffffffffffffffffffffffffffffffffffffffff1681526020018281526020019250505060405180910390a15050565b3373ffffffffffffffffffffffffffffffffffffffff1660008281548110610c3257fe5b906000526020600020906005020160000160009054906101000a900473ffffffffffffffffffffffffffffffffffffffff1673ffffffffffffffffffffffffffffffffffffffff16148015610caf575060008181548110610c8f57fe5b906000526020600020906005020160040160009054906101000a900460ff165b8015610ce3575060008181548110610cc357fe5b906000526020600020906005020160040160019054906101000a900460ff165b610cec57600080fd5b600160008281548110610cfb57fe5b906000526020600020906005020160040160026101000a81548160ff0219169083151502179055506000610d8b60008381548110610d3557fe5b90600052602060002090600502016003015460008481548110610d5457fe5b906000526020600020906005020160010160009054906101000a900473ffffffffffffffffffffffffffffffffffffffff16610edd565b905080610d9757600080fd5b7f552e72bac16504b1c8b3f9a089007725e113c716d8d7069f6080c947750401a660008381548110610dc557fe5b906000526020600020906005020160000160009054906101000a900473ffffffffffffffffffffffffffffffffffffffff1660008481548110610e0457fe5b906000526020600020906005020160010160009054906101000a900473ffffffffffffffffffffffffffffffffffffffff1660008581548110610e4357fe5b906000526020600020906005020160030154604051808473ffffffffffffffffffffffffffffffffffffffff1673ffffffffffffffffffffffffffffffffffffffff1681526020018373ffffffffffffffffffffffffffffffffffffffff1673ffffffffffffffffffffffffffffffffffffffff168152602001828152602001935050505060405180910390a1610ed982610f35565b5050565b6000808290508073ffffffffffffffffffffffffffffffffffffffff166108fc859081150290604051600060405180830381858888f19350505050158015610f29573d6000803e3d6000fd5b50600191505092915050565b60008181548110610f4257fe5b9060005260206000209060050201600080820160006101000a81549073ffffffffffffffffffffffffffffffffffffffff02191690556001820160006101000a81549073ffffffffffffffffffffffffffffffffffffffff0219169055600282016000610faf9190611349565b60038201600090556004820160006101000a81549060ff02191690556004820160016101000a81549060ff02191690556004820160026101000a81549060ff02191690555050600180541461128757600060018054038154811061100f57fe5b90600052602060002090600502016000828154811061102a57fe5b90600052602060002090600502016000820160009054906101000a900473ffffffffffffffffffffffffffffffffffffffff168160000160006101000a81548173ffffffffffffffffffffffffffffffffffffffff021916908373ffffffffffffffffffffffffffffffffffffffff1602179055506001820160009054906101000a900473ffffffffffffffffffffffffffffffffffffffff168160010160006101000a81548173ffffffffffffffffffffffffffffffffffffffff021916908373ffffffffffffffffffffffffffffffffffffffff1602179055506002820181600201908054600181600116156101000203166002900461112d929190611391565b50600382015481600301556004820160009054906101000a900460ff168160040160006101000a81548160ff0219169083151502179055506004820160019054906101000a900460ff168160040160016101000a81548160ff0219169083151502179055506004820160029054906101000a900460ff168160040160026101000a81548160ff02191690831515021790555090505060006001805403815481106111d357fe5b9060005260206000209060050201600080820160006101000a81549073ffffffffffffffffffffffffffffffffffffffff02191690556001820160006101000a81549073ffffffffffffffffffffffffffffffffffffffff02191690556002820160006112409190611349565b60038201600090556004820160006101000a81549060ff02191690556004820160016101000a81549060ff02191690556004820160026101000a81549060ff021916905550505b7f98c60731006c4a01e78ae7527388a876bf6b1f86400a2780581eab1268ebc30d60405160405180910390a16001600081548092919060019003919050555050565b828054600181600116156101000203166002900490600052602060002090601f016020900481019282601f1061130a57805160ff1916838001178555611338565b82800160010185558215611338579182015b8281111561133757825182559160200191906001019061131c565b5b5090506113459190611418565b5090565b50805460018160011615610100020316600290046000825580601f1061136f575061138e565b601f01602090049060005260206000209081019061138d9190611418565b5b50565b828054600181600116156101000203166002900490600052602060002090601f016020900481019282601f106113ca5780548555611407565b8280016001018555821561140757600052602060002091601f016020900482015b828111156114065782548255916001019190600101906113eb565b5b5090506114149190611418565b5090565b61143a91905b8082111561143657600081600090555060010161141e565b5090565b9056fea264697066735822122064b2bce69164ffa2c566a96d854ece358e7953e7408c19652ce2f8f57d1bd8c464736f6c63430006040033",
  "source": "pragma solidity >=0.4.21 <0.7.0;\n\nimport \"./AssignContractee.sol\";\n\ncontract EndCommitment is AssignContractee {\n    event EndCommitmentContracteeEvent(\n        address _contractor,\n        address _contractee,\n        string Contract\n    );\n\n    event transferAmountEvent(\n        address _contractor,\n        address _contractee,\n        uint256 _amount\n    );\n    event EmergencyEvent();\n\n    function deleteCommitment(uint256 _id) internal {\n        delete commitments[_id];\n        if (totalCommitments != 1) {\n            commitments[_id] = commitments[totalCommitments - 1];\n            delete commitments[totalCommitments - 1];\n        }\n        emit EmergencyEvent();\n        totalCommitments--;\n    }\n\n    function EndCommitmentContractor(uint256 _id) external {\n        //commitment closed by contractor\n        require(\n            commitments[_id].contractor == msg.sender &&\n                commitments[_id].status &&\n                commitments[_id].contracteeStatus\n        );\n        commitments[_id].contractorStatus = true;\n        // transfering amount to contractee\n        bool transferStatus = transferAmount(\n            commitments[_id].amount,\n            commitments[_id].contractee\n        );\n        require(transferStatus);\n        emit transferAmountEvent(\n            commitments[_id].contractor,\n            commitments[_id].contractee,\n            commitments[_id].amount\n        );\n        deleteCommitment(_id);\n    }\n\n    function EndCommitmentContractee(uint256 _id) external {\n        //commitment completed by contractee\n        require(\n            commitments[_id].contractee == msg.sender && commitments[_id].status\n        );\n        commitments[_id].contracteeStatus = true;\n\n        emit EndCommitmentContracteeEvent(\n            commitments[_id].contractor,\n            commitments[_id].contractee,\n            commitments[_id].Contract\n        );\n    }\n}\n",
  "sourcePath": "/home/mohan/Documents/HACKS/Commitments/contracts/EndCommitment.sol",
  "compiler": {
    "name": "solc",
    "version": "0.6.4+commit.1dca32f3.Emscripten.clang"
  },
  "schemaVersion": "3.3.1",
  "updatedAt": "2020-10-29T11:25:06.435Z",
  "devdoc": {
    "methods": {}
  },
  "userdoc": {
    "methods": {}
  }
}